{
  "_format": "hh-sol-artifact-1",
  "contractName": "accessController",
  "sourceName": "contracts/controller.sol",
  "abi": [
    {
      "inputs": [],
      "stateMutability": "nonpayable",
      "type": "constructor"
    },
    {
      "anonymous": false,
      "inputs": [
        {
          "indexed": true,
          "internalType": "address",
          "name": "account",
          "type": "address"
        },
        {
          "indexed": true,
          "internalType": "address",
          "name": "operator",
          "type": "address"
        },
        {
          "indexed": false,
          "internalType": "bool",
          "name": "approved",
          "type": "bool"
        }
      ],
      "name": "ApprovalForAll",
      "type": "event"
    },
    {
      "anonymous": false,
      "inputs": [
        {
          "indexed": false,
          "internalType": "address",
          "name": "account",
          "type": "address"
        },
        {
          "indexed": false,
          "internalType": "uint256",
          "name": "ticket",
          "type": "uint256"
        }
      ],
      "name": "BurnTicket",
      "type": "event"
    },
    {
      "anonymous": false,
      "inputs": [
        {
          "indexed": false,
          "internalType": "address",
          "name": "addr",
          "type": "address"
        },
        {
          "indexed": false,
          "internalType": "uint256",
          "name": "amount",
          "type": "uint256"
        }
      ],
      "name": "NewTicket",
      "type": "event"
    },
    {
      "anonymous": false,
      "inputs": [
        {
          "indexed": true,
          "internalType": "address",
          "name": "previousOwner",
          "type": "address"
        },
        {
          "indexed": true,
          "internalType": "address",
          "name": "newOwner",
          "type": "address"
        }
      ],
      "name": "OwnershipTransferred",
      "type": "event"
    },
    {
      "anonymous": false,
      "inputs": [
        {
          "indexed": false,
          "internalType": "address",
          "name": "account",
          "type": "address"
        }
      ],
      "name": "Paused",
      "type": "event"
    },
    {
      "anonymous": false,
      "inputs": [
        {
          "indexed": false,
          "internalType": "address",
          "name": "from",
          "type": "address"
        },
        {
          "indexed": false,
          "internalType": "address",
          "name": "to",
          "type": "address"
        },
        {
          "indexed": false,
          "internalType": "uint256",
          "name": "id",
          "type": "uint256"
        }
      ],
      "name": "Transfer",
      "type": "event"
    },
    {
      "anonymous": false,
      "inputs": [
        {
          "indexed": true,
          "internalType": "address",
          "name": "operator",
          "type": "address"
        },
        {
          "indexed": true,
          "internalType": "address",
          "name": "from",
          "type": "address"
        },
        {
          "indexed": true,
          "internalType": "address",
          "name": "to",
          "type": "address"
        },
        {
          "indexed": false,
          "internalType": "uint256[]",
          "name": "ids",
          "type": "uint256[]"
        },
        {
          "indexed": false,
          "internalType": "uint256[]",
          "name": "values",
          "type": "uint256[]"
        }
      ],
      "name": "TransferBatch",
      "type": "event"
    },
    {
      "anonymous": false,
      "inputs": [
        {
          "indexed": false,
          "internalType": "address",
          "name": "from",
          "type": "address"
        },
        {
          "indexed": false,
          "internalType": "address",
          "name": "to",
          "type": "address"
        },
        {
          "indexed": false,
          "internalType": "uint256",
          "name": "id",
          "type": "uint256"
        }
      ],
      "name": "TransferError",
      "type": "event"
    },
    {
      "anonymous": false,
      "inputs": [
        {
          "indexed": true,
          "internalType": "address",
          "name": "operator",
          "type": "address"
        },
        {
          "indexed": true,
          "internalType": "address",
          "name": "from",
          "type": "address"
        },
        {
          "indexed": true,
          "internalType": "address",
          "name": "to",
          "type": "address"
        },
        {
          "indexed": false,
          "internalType": "uint256",
          "name": "id",
          "type": "uint256"
        },
        {
          "indexed": false,
          "internalType": "uint256",
          "name": "value",
          "type": "uint256"
        }
      ],
      "name": "TransferSingle",
      "type": "event"
    },
    {
      "anonymous": false,
      "inputs": [
        {
          "indexed": false,
          "internalType": "string",
          "name": "value",
          "type": "string"
        },
        {
          "indexed": true,
          "internalType": "uint256",
          "name": "id",
          "type": "uint256"
        }
      ],
      "name": "URI",
      "type": "event"
    },
    {
      "anonymous": false,
      "inputs": [
        {
          "indexed": false,
          "internalType": "address",
          "name": "account",
          "type": "address"
        }
      ],
      "name": "Unpaused",
      "type": "event"
    },
    {
      "inputs": [
        {
          "internalType": "address",
          "name": "account",
          "type": "address"
        },
        {
          "internalType": "uint256",
          "name": "id",
          "type": "uint256"
        }
      ],
      "name": "balanceOf",
      "outputs": [
        {
          "internalType": "uint256",
          "name": "",
          "type": "uint256"
        }
      ],
      "stateMutability": "view",
      "type": "function"
    },
    {
      "inputs": [
        {
          "internalType": "address[]",
          "name": "accounts",
          "type": "address[]"
        },
        {
          "internalType": "uint256[]",
          "name": "ids",
          "type": "uint256[]"
        }
      ],
      "name": "balanceOfBatch",
      "outputs": [
        {
          "internalType": "uint256[]",
          "name": "",
          "type": "uint256[]"
        }
      ],
      "stateMutability": "view",
      "type": "function"
    },
    {
      "inputs": [
        {
          "internalType": "address",
          "name": "account",
          "type": "address"
        },
        {
          "internalType": "uint256",
          "name": "ticketType",
          "type": "uint256"
        },
        {
          "internalType": "uint256",
          "name": "amount",
          "type": "uint256"
        }
      ],
      "name": "burnNFT",
      "outputs": [],
      "stateMutability": "nonpayable",
      "type": "function"
    },
    {
      "inputs": [
        {
          "internalType": "uint256",
          "name": "ticketType",
          "type": "uint256"
        }
      ],
      "name": "checkId",
      "outputs": [
        {
          "internalType": "bool",
          "name": "",
          "type": "bool"
        }
      ],
      "stateMutability": "view",
      "type": "function"
    },
    {
      "inputs": [],
      "name": "dataTicket",
      "outputs": [
        {
          "internalType": "uint256",
          "name": "",
          "type": "uint256"
        }
      ],
      "stateMutability": "view",
      "type": "function"
    },
    {
      "inputs": [
        {
          "internalType": "address",
          "name": "account",
          "type": "address"
        },
        {
          "internalType": "address",
          "name": "operator",
          "type": "address"
        }
      ],
      "name": "isApprovedForAll",
      "outputs": [
        {
          "internalType": "bool",
          "name": "",
          "type": "bool"
        }
      ],
      "stateMutability": "view",
      "type": "function"
    },
    {
      "inputs": [
        {
          "internalType": "address",
          "name": "from",
          "type": "address"
        },
        {
          "internalType": "address",
          "name": "to",
          "type": "address"
        },
        {
          "internalType": "uint256",
          "name": "ticketType",
          "type": "uint256"
        }
      ],
      "name": "marketTransfer",
      "outputs": [],
      "stateMutability": "nonpayable",
      "type": "function"
    },
    {
      "inputs": [
        {
          "internalType": "address",
          "name": "account",
          "type": "address"
        },
        {
          "internalType": "uint256",
          "name": "ticketType",
          "type": "uint256"
        },
        {
          "internalType": "uint256",
          "name": "amount",
          "type": "uint256"
        }
      ],
      "name": "mintNFT",
      "outputs": [],
      "stateMutability": "nonpayable",
      "type": "function"
    },
    {
      "inputs": [],
      "name": "name",
      "outputs": [
        {
          "internalType": "string",
          "name": "",
          "type": "string"
        }
      ],
      "stateMutability": "view",
      "type": "function"
    },
    {
      "inputs": [
        {
          "internalType": "address",
          "name": "",
          "type": "address"
        },
        {
          "internalType": "address",
          "name": "",
          "type": "address"
        },
        {
          "internalType": "uint256[]",
          "name": "",
          "type": "uint256[]"
        },
        {
          "internalType": "uint256[]",
          "name": "",
          "type": "uint256[]"
        },
        {
          "internalType": "bytes",
          "name": "",
          "type": "bytes"
        }
      ],
      "name": "onERC1155BatchReceived",
      "outputs": [
        {
          "internalType": "bytes4",
          "name": "",
          "type": "bytes4"
        }
      ],
      "stateMutability": "nonpayable",
      "type": "function"
    },
    {
      "inputs": [
        {
          "internalType": "address",
          "name": "",
          "type": "address"
        },
        {
          "internalType": "address",
          "name": "",
          "type": "address"
        },
        {
          "internalType": "uint256",
          "name": "",
          "type": "uint256"
        },
        {
          "internalType": "uint256",
          "name": "",
          "type": "uint256"
        },
        {
          "internalType": "bytes",
          "name": "",
          "type": "bytes"
        }
      ],
      "name": "onERC1155Received",
      "outputs": [
        {
          "internalType": "bytes4",
          "name": "",
          "type": "bytes4"
        }
      ],
      "stateMutability": "nonpayable",
      "type": "function"
    },
    {
      "inputs": [],
      "name": "owner",
      "outputs": [
        {
          "internalType": "address",
          "name": "",
          "type": "address"
        }
      ],
      "stateMutability": "view",
      "type": "function"
    },
    {
      "inputs": [],
      "name": "pause",
      "outputs": [],
      "stateMutability": "nonpayable",
      "type": "function"
    },
    {
      "inputs": [],
      "name": "paused",
      "outputs": [
        {
          "internalType": "bool",
          "name": "",
          "type": "bool"
        }
      ],
      "stateMutability": "view",
      "type": "function"
    },
    {
      "inputs": [],
      "name": "renounceOwnership",
      "outputs": [],
      "stateMutability": "nonpayable",
      "type": "function"
    },
    {
      "inputs": [
        {
          "internalType": "address",
          "name": "from",
          "type": "address"
        },
        {
          "internalType": "address",
          "name": "to",
          "type": "address"
        },
        {
          "internalType": "uint256[]",
          "name": "ids",
          "type": "uint256[]"
        },
        {
          "internalType": "uint256[]",
          "name": "amounts",
          "type": "uint256[]"
        },
        {
          "internalType": "bytes",
          "name": "data",
          "type": "bytes"
        }
      ],
      "name": "safeBatchTransferFrom",
      "outputs": [],
      "stateMutability": "nonpayable",
      "type": "function"
    },
    {
      "inputs": [
        {
          "internalType": "address",
          "name": "from",
          "type": "address"
        },
        {
          "internalType": "address",
          "name": "to",
          "type": "address"
        },
        {
          "internalType": "uint256",
          "name": "id",
          "type": "uint256"
        },
        {
          "internalType": "uint256",
          "name": "amount",
          "type": "uint256"
        },
        {
          "internalType": "bytes",
          "name": "data",
          "type": "bytes"
        }
      ],
      "name": "safeTransferFrom",
      "outputs": [],
      "stateMutability": "nonpayable",
      "type": "function"
    },
    {
      "inputs": [
        {
          "internalType": "address",
          "name": "operator",
          "type": "address"
        },
        {
          "internalType": "bool",
          "name": "approved",
          "type": "bool"
        }
      ],
      "name": "setApprovalForAll",
      "outputs": [],
      "stateMutability": "nonpayable",
      "type": "function"
    },
    {
      "inputs": [
        {
          "internalType": "bytes4",
          "name": "interfaceId",
          "type": "bytes4"
        }
      ],
      "name": "supportsInterface",
      "outputs": [
        {
          "internalType": "bool",
          "name": "",
          "type": "bool"
        }
      ],
      "stateMutability": "view",
      "type": "function"
    },
    {
      "inputs": [],
      "name": "symbol",
      "outputs": [
        {
          "internalType": "string",
          "name": "",
          "type": "string"
        }
      ],
      "stateMutability": "view",
      "type": "function"
    },
    {
      "inputs": [
        {
          "internalType": "address",
          "name": "newOwner",
          "type": "address"
        }
      ],
      "name": "transferOwnership",
      "outputs": [],
      "stateMutability": "nonpayable",
      "type": "function"
    },
    {
      "inputs": [],
      "name": "unpause",
      "outputs": [],
      "stateMutability": "nonpayable",
      "type": "function"
    },
    {
      "inputs": [
        {
          "internalType": "uint256",
          "name": "_tokenid",
          "type": "uint256"
        }
      ],
      "name": "uri",
      "outputs": [
        {
          "internalType": "string",
          "name": "",
          "type": "string"
        }
      ],
      "stateMutability": "pure",
      "type": "function"
    }
  ],
  "bytecode": "0x60806040526040518060400160405280601b81526020017f4e6f6e46756e6769626c65547275737420436f6e74726f6c6c65720000000000815250600490805190602001906200005192919062000205565b506040518060400160405280600781526020017f4e46547275737400000000000000000000000000000000000000000000000000815250600590805190602001906200009f92919062000205565b50348015620000ad57600080fd5b506040518060600160405280603f815260200162004ac5603f9139620000d9816200011b60201b60201c565b50620000fa620000ee6200013760201b60201c565b6200013f60201b60201c565b6000600360146101000a81548160ff0219169083151502179055506200031a565b80600290805190602001906200013392919062000205565b5050565b600033905090565b6000600360009054906101000a900473ffffffffffffffffffffffffffffffffffffffff16905081600360006101000a81548173ffffffffffffffffffffffffffffffffffffffff021916908373ffffffffffffffffffffffffffffffffffffffff1602179055508173ffffffffffffffffffffffffffffffffffffffff168173ffffffffffffffffffffffffffffffffffffffff167f8be0079c531659141344cd1fd0a4f28419497f9722a3daafe3b4186f6b6457e060405160405180910390a35050565b8280546200021390620002b5565b90600052602060002090601f01602090048101928262000237576000855562000283565b82601f106200025257805160ff191683800117855562000283565b8280016001018555821562000283579182015b828111156200028257825182559160200191906001019062000265565b5b50905062000292919062000296565b5090565b5b80821115620002b157600081600090555060010162000297565b5090565b60006002820490506001821680620002ce57607f821691505b60208210811415620002e557620002e4620002eb565b5b50919050565b7f4e487b7100000000000000000000000000000000000000000000000000000000600052602260045260246000fd5b61479b806200032a6000396000f3fe608060405234801561001057600080fd5b506004361061014c5760003560e01c80635c975abb116100c3578063bc197c811161007c578063bc197c8114610365578063bcf0dd8e14610395578063e985e9c5146103b1578063f23a6e61146103e1578063f242432a14610411578063f2fde38b1461042d5761014c565b80635c975abb146102db578063715018a6146102f95780638456cb59146103035780638da5cb5b1461030d57806395d89b411461032b578063a22cb465146103495761014c565b8063205a26fb11610115578063205a26fb1461021b5780632eb2c2d61461024b5780632fdfd354146102675780633f4ba83a146102855780634e1273f41461028f5780635a9d10a2146102bf5761014c565b8062fdd58e1461015157806301ffc9a71461018157806306fdde03146101b15780630e89341c146101cf5780631cc509fd146101ff575b600080fd5b61016b60048036038101906101669190612ded565b610449565b60405161017891906139d8565b60405180910390f35b61019b60048036038101906101969190612ee4565b610512565b6040516101a89190613660565b60405180910390f35b6101b961056c565b6040516101c69190613696565b60405180910390f35b6101e960048036038101906101e49190612f36565b6105fa565b6040516101f69190613696565b60405180910390f35b61021960048036038101906102149190612e29565b61062b565b005b61023560048036038101906102309190612f36565b610738565b6040516102429190613660565b60405180910390f35b61026560048036038101906102609190612c14565b610816565b005b61026f6108b7565b60405161027c91906139d8565b60405180910390f35b61028d6108bc565b005b6102a960048036038101906102a49190612e78565b610989565b6040516102b69190613607565b60405180910390f35b6102d960048036038101906102d49190612e29565b610b3a565b005b6102e3610c57565b6040516102f09190613660565b60405180910390f35b610301610c6e565b005b61030b610cf6565b005b610315610dc4565b60405161032291906134ca565b60405180910390f35b610333610dee565b6040516103409190613696565b60405180910390f35b610363600480360381019061035e9190612db1565b610e7c565b005b61037f600480360381019061037a9190612c14565b610e92565b60405161038c919061367b565b60405180910390f35b6103af60048036038101906103aa9190612cd3565b610ea7565b005b6103cb60048036038101906103c69190612bd8565b6110e3565b6040516103d89190613660565b60405180910390f35b6103fb60048036038101906103f69190612d22565b611177565b604051610408919061367b565b60405180910390f35b61042b60048036038101906104269190612d22565b61118c565b005b61044760048036038101906104429190612baf565b61122d565b005b60008073ffffffffffffffffffffffffffffffffffffffff168373ffffffffffffffffffffffffffffffffffffffff1614156104ba576040517f08c379a00000000000000000000000000000000000000000000000000000000081526004016104b1906137f8565b60405180910390fd5b60008083815260200190815260200160002060008473ffffffffffffffffffffffffffffffffffffffff1673ffffffffffffffffffffffffffffffffffffffff16815260200190815260200160002054905092915050565b600061051c610c57565b1561055c576040517f08c379a0000000000000000000000000000000000000000000000000000000008152600401610553906137b8565b60405180910390fd5b61056582611325565b9050919050565b6004805461057990613cb7565b80601f01602080910402602001604051908101604052809291908181526020018280546105a590613cb7565b80156105f25780601f106105c7576101008083540402835291602001916105f2565b820191906000526020600020905b8154815290600101906020018083116105d557829003601f168201915b505050505081565b606061060582611407565b604051602001610615919061349d565b6040516020818303038152906040529050919050565b6106336115b4565b73ffffffffffffffffffffffffffffffffffffffff16610651610dc4565b73ffffffffffffffffffffffffffffffffffffffff16146106a7576040517f08c379a000000000000000000000000000000000000000000000000000000000815260040161069e90613898565b60405180910390fd5b6106af610c57565b156106ef576040517f08c379a00000000000000000000000000000000000000000000000000000000081526004016106e690613738565b60405180910390fd5b6106fa8383836115bc565b7f51a0dfc08d1118a59ab8573f0a90324436979aadf30097c05159f4a7899a9977838360405161072b9291906135de565b60405180910390a1505050565b6000610742610c57565b15610782576040517f08c379a0000000000000000000000000000000000000000000000000000000008152600401610779906138f8565b60405180910390fd5b60003073ffffffffffffffffffffffffffffffffffffffff1662fdd58e33856040518363ffffffff1660e01b81526004016107be9291906135de565b60206040518083038186803b1580156107d657600080fd5b505afa1580156107ea573d6000803e3d6000fd5b505050506040513d601f19601f8201168201806040525081019061080e9190612f5f565b119050919050565b61081e6115b4565b73ffffffffffffffffffffffffffffffffffffffff168573ffffffffffffffffffffffffffffffffffffffff16148061086457506108638561085e6115b4565b6110e3565b5b6108a3576040517f08c379a000000000000000000000000000000000000000000000000000000000815260040161089a906136d8565b60405180910390fd5b6108b08585858585611803565b5050505050565b600181565b6108c46115b4565b73ffffffffffffffffffffffffffffffffffffffff166108e2610dc4565b73ffffffffffffffffffffffffffffffffffffffff1614610938576040517f08c379a000000000000000000000000000000000000000000000000000000000815260040161092f90613898565b60405180910390fd5b610940610c57565b61097f576040517f08c379a0000000000000000000000000000000000000000000000000000000008152600401610976906138d8565b60405180910390fd5b610987611b71565b565b606081518351146109cf576040517f08c379a00000000000000000000000000000000000000000000000000000000081526004016109c690613958565b60405180910390fd5b6000835167ffffffffffffffff811115610a12577f4e487b7100000000000000000000000000000000000000000000000000000000600052604160045260246000fd5b604051908082528060200260200182016040528015610a405781602001602082028036833780820191505090505b50905060005b8451811015610b2f57610ad9858281518110610a8b577f4e487b7100000000000000000000000000000000000000000000000000000000600052603260045260246000fd5b6020026020010151858381518110610acc577f4e487b7100000000000000000000000000000000000000000000000000000000600052603260045260246000fd5b6020026020010151610449565b828281518110610b12577f4e487b7100000000000000000000000000000000000000000000000000000000600052603260045260246000fd5b60200260200101818152505080610b2890613d1a565b9050610a46565b508091505092915050565b610b426115b4565b73ffffffffffffffffffffffffffffffffffffffff16610b60610dc4565b73ffffffffffffffffffffffffffffffffffffffff1614610bb6576040517f08c379a0000000000000000000000000000000000000000000000000000000008152600401610bad90613898565b60405180910390fd5b610bbe610c57565b15610bfe576040517f08c379a0000000000000000000000000000000000000000000000000000000008152600401610bf5906138b8565b60405180910390fd5b610c1983838360405180602001604052806000815250611c13565b7fdece058cd7cd2ee12f875b0ca3fd9ace3c14e4a2c65c283511fe8d09be688c488382604051610c4a9291906135de565b60405180910390a1505050565b6000600360149054906101000a900460ff16905090565b610c766115b4565b73ffffffffffffffffffffffffffffffffffffffff16610c94610dc4565b73ffffffffffffffffffffffffffffffffffffffff1614610cea576040517f08c379a0000000000000000000000000000000000000000000000000000000008152600401610ce190613898565b60405180910390fd5b610cf46000611dc4565b565b610cfe6115b4565b73ffffffffffffffffffffffffffffffffffffffff16610d1c610dc4565b73ffffffffffffffffffffffffffffffffffffffff1614610d72576040517f08c379a0000000000000000000000000000000000000000000000000000000008152600401610d6990613898565b60405180910390fd5b610d7a610c57565b15610dba576040517f08c379a0000000000000000000000000000000000000000000000000000000008152600401610db190613918565b60405180910390fd5b610dc2611e8a565b565b6000600360009054906101000a900473ffffffffffffffffffffffffffffffffffffffff16905090565b60058054610dfb90613cb7565b80601f0160208091040260200160405190810160405280929190818152602001828054610e2790613cb7565b8015610e745780601f10610e4957610100808354040283529160200191610e74565b820191906000526020600020905b815481529060010190602001808311610e5757829003601f168201915b505050505081565b610e8e610e876115b4565b8383611f2d565b5050565b600063bc197c8160e01b905095945050505050565b610eaf6115b4565b73ffffffffffffffffffffffffffffffffffffffff16610ecd610dc4565b73ffffffffffffffffffffffffffffffffffffffff1614610f23576040517f08c379a0000000000000000000000000000000000000000000000000000000008152600401610f1a90613898565b60405180910390fd5b610f2b610c57565b15610f6b576040517f08c379a0000000000000000000000000000000000000000000000000000000008152600401610f6290613818565b60405180910390fd5b610f73610c57565b15610fb3576040517f08c379a0000000000000000000000000000000000000000000000000000000008152600401610faa906139b8565b60405180910390fd5b60003073ffffffffffffffffffffffffffffffffffffffff1662fdd58e85846040518363ffffffff1660e01b8152600401610fef9291906135de565b60206040518083038186803b15801561100757600080fd5b505afa15801561101b573d6000803e3d6000fd5b505050506040513d601f19601f8201168201806040525081019061103f9190612f5f565b1115611085577f76aa623111c30cd7bcd5cac4cafa674a2f181c76aa2a6b3aab613dffa1ae51db8383836040516110789392919061354d565b60405180910390a16110de565b6110a283838360016040518060200160405280600081525061209a565b7fddf252ad1be2c89b69c2b068fc378daa952ba7f163c4a11628f55a4df523b3ef8383836040516110d59392919061354d565b60405180910390a15b505050565b6000600160008473ffffffffffffffffffffffffffffffffffffffff1673ffffffffffffffffffffffffffffffffffffffff16815260200190815260200160002060008373ffffffffffffffffffffffffffffffffffffffff1673ffffffffffffffffffffffffffffffffffffffff16815260200190815260200160002060009054906101000a900460ff16905092915050565b600063f23a6e6160e01b905095945050505050565b6111946115b4565b73ffffffffffffffffffffffffffffffffffffffff168573ffffffffffffffffffffffffffffffffffffffff1614806111da57506111d9856111d46115b4565b6110e3565b5b611219576040517f08c379a0000000000000000000000000000000000000000000000000000000008152600401611210906136d8565b60405180910390fd5b611226858585858561209a565b5050505050565b6112356115b4565b73ffffffffffffffffffffffffffffffffffffffff16611253610dc4565b73ffffffffffffffffffffffffffffffffffffffff16146112a9576040517f08c379a00000000000000000000000000000000000000000000000000000000081526004016112a090613898565b60405180910390fd5b600073ffffffffffffffffffffffffffffffffffffffff168173ffffffffffffffffffffffffffffffffffffffff161415611319576040517f08c379a000000000000000000000000000000000000000000000000000000000815260040161131090613758565b60405180910390fd5b61132281611dc4565b50565b60007fd9b67a26000000000000000000000000000000000000000000000000000000007bffffffffffffffffffffffffffffffffffffffffffffffffffffffff1916827bffffffffffffffffffffffffffffffffffffffffffffffffffffffff191614806113f057507f0e89341c000000000000000000000000000000000000000000000000000000007bffffffffffffffffffffffffffffffffffffffffffffffffffffffff1916827bffffffffffffffffffffffffffffffffffffffffffffffffffffffff1916145b8061140057506113ff82612336565b5b9050919050565b6060600082141561144f576040518060400160405280600181526020017f300000000000000000000000000000000000000000000000000000000000000081525090506115af565b600082905060005b6000821461148157808061146a90613d1a565b915050600a8261147a9190613b9c565b9150611457565b60008167ffffffffffffffff8111156114c3577f4e487b7100000000000000000000000000000000000000000000000000000000600052604160045260246000fd5b6040519080825280601f01601f1916602001820160405280156114f55781602001600182028036833780820191505090505b5090505b600085146115a85760018261150e9190613bcd565b9150600a8561151d9190613d63565b60306115299190613b46565b60f81b818381518110611565577f4e487b7100000000000000000000000000000000000000000000000000000000600052603260045260246000fd5b60200101907effffffffffffffffffffffffffffffffffffffffffffffffffffffffffffff1916908160001a905350600a856115a19190613b9c565b94506114f9565b8093505050505b919050565b600033905090565b600073ffffffffffffffffffffffffffffffffffffffff168373ffffffffffffffffffffffffffffffffffffffff16141561162c576040517f08c379a000000000000000000000000000000000000000000000000000000000815260040161162390613858565b60405180910390fd5b60006116366115b4565b90506000611643846123b0565b90506000611650846123b0565b905061167083876000858560405180602001604052806000815250612476565b600080600087815260200190815260200160002060008873ffffffffffffffffffffffffffffffffffffffff1673ffffffffffffffffffffffffffffffffffffffff16815260200190815260200160002054905084811015611707576040517f08c379a00000000000000000000000000000000000000000000000000000000081526004016116fe90613798565b60405180910390fd5b84810360008088815260200190815260200160002060008973ffffffffffffffffffffffffffffffffffffffff1673ffffffffffffffffffffffffffffffffffffffff16815260200190815260200160002081905550600073ffffffffffffffffffffffffffffffffffffffff168773ffffffffffffffffffffffffffffffffffffffff168573ffffffffffffffffffffffffffffffffffffffff167fc3d58168c5ae7397731d063d5bbf3d657854427343f4c083240f7aacaa2d0f6289896040516117d49291906139f3565b60405180910390a46117fa848860008686604051806020016040528060008152506124d4565b50505050505050565b8151835114611847576040517f08c379a000000000000000000000000000000000000000000000000000000000815260040161183e90613978565b60405180910390fd5b600073ffffffffffffffffffffffffffffffffffffffff168473ffffffffffffffffffffffffffffffffffffffff1614156118b7576040517f08c379a00000000000000000000000000000000000000000000000000000000081526004016118ae90613838565b60405180910390fd5b60006118c16115b4565b90506118d1818787878787612476565b60005b8451811015611ace576000858281518110611918577f4e487b7100000000000000000000000000000000000000000000000000000000600052603260045260246000fd5b60200260200101519050600085838151811061195d577f4e487b7100000000000000000000000000000000000000000000000000000000600052603260045260246000fd5b60200260200101519050600080600084815260200190815260200160002060008b73ffffffffffffffffffffffffffffffffffffffff1673ffffffffffffffffffffffffffffffffffffffff168152602001908152602001600020549050818110156119fe576040517f08c379a00000000000000000000000000000000000000000000000000000000081526004016119f590613878565b60405180910390fd5b81810360008085815260200190815260200160002060008c73ffffffffffffffffffffffffffffffffffffffff1673ffffffffffffffffffffffffffffffffffffffff168152602001908152602001600020819055508160008085815260200190815260200160002060008b73ffffffffffffffffffffffffffffffffffffffff1673ffffffffffffffffffffffffffffffffffffffff1681526020019081526020016000206000828254611ab39190613b46565b9250508190555050505080611ac790613d1a565b90506118d4565b508473ffffffffffffffffffffffffffffffffffffffff168673ffffffffffffffffffffffffffffffffffffffff168273ffffffffffffffffffffffffffffffffffffffff167f4a39dc06d4c0dbc64b70af90fd698a233a518aa5d07e595d983b8c0526c8f7fb8787604051611b45929190613629565b60405180910390a4611b5b8187878787876124d4565b611b698187878787876124dc565b505050505050565b611b79610c57565b611bb8576040517f08c379a0000000000000000000000000000000000000000000000000000000008152600401611baf90613718565b60405180910390fd5b6000600360146101000a81548160ff0219169083151502179055507f5db9ee0a495bf2e6ff9c91a7834c1ba4fdd244a5e8aa4e537bd38aeae4b073aa611bfc6115b4565b604051611c0991906134ca565b60405180910390a1565b600073ffffffffffffffffffffffffffffffffffffffff168473ffffffffffffffffffffffffffffffffffffffff161415611c83576040517f08c379a0000000000000000000000000000000000000000000000000000000008152600401611c7a90613998565b60405180910390fd5b6000611c8d6115b4565b90506000611c9a856123b0565b90506000611ca7856123b0565b9050611cb883600089858589612476565b8460008088815260200190815260200160002060008973ffffffffffffffffffffffffffffffffffffffff1673ffffffffffffffffffffffffffffffffffffffff1681526020019081526020016000206000828254611d179190613b46565b925050819055508673ffffffffffffffffffffffffffffffffffffffff16600073ffffffffffffffffffffffffffffffffffffffff168473ffffffffffffffffffffffffffffffffffffffff167fc3d58168c5ae7397731d063d5bbf3d657854427343f4c083240f7aacaa2d0f628989604051611d959291906139f3565b60405180910390a4611dac836000898585896124d4565b611dbb836000898989896126c3565b50505050505050565b6000600360009054906101000a900473ffffffffffffffffffffffffffffffffffffffff16905081600360006101000a81548173ffffffffffffffffffffffffffffffffffffffff021916908373ffffffffffffffffffffffffffffffffffffffff1602179055508173ffffffffffffffffffffffffffffffffffffffff168173ffffffffffffffffffffffffffffffffffffffff167f8be0079c531659141344cd1fd0a4f28419497f9722a3daafe3b4186f6b6457e060405160405180910390a35050565b611e92610c57565b15611ed2576040517f08c379a0000000000000000000000000000000000000000000000000000000008152600401611ec990613818565b60405180910390fd5b6001600360146101000a81548160ff0219169083151502179055507f62e78cea01bee320cd4e420270b5ea74000d11b0c9f74754ebdbfc544b05a258611f166115b4565b604051611f2391906134ca565b60405180910390a1565b8173ffffffffffffffffffffffffffffffffffffffff168373ffffffffffffffffffffffffffffffffffffffff161415611f9c576040517f08c379a0000000000000000000000000000000000000000000000000000000008152600401611f9390613938565b60405180910390fd5b80600160008573ffffffffffffffffffffffffffffffffffffffff1673ffffffffffffffffffffffffffffffffffffffff16815260200190815260200160002060008473ffffffffffffffffffffffffffffffffffffffff1673ffffffffffffffffffffffffffffffffffffffff16815260200190815260200160002060006101000a81548160ff0219169083151502179055508173ffffffffffffffffffffffffffffffffffffffff168373ffffffffffffffffffffffffffffffffffffffff167f17307eab39ab6107e8899845ad3d59bd9653f200f220920489ca2b5937696c318360405161208d9190613660565b60405180910390a3505050565b600073ffffffffffffffffffffffffffffffffffffffff168473ffffffffffffffffffffffffffffffffffffffff16141561210a576040517f08c379a000000000000000000000000000000000000000000000000000000000815260040161210190613838565b60405180910390fd5b60006121146115b4565b90506000612121856123b0565b9050600061212e856123b0565b905061213e838989858589612476565b600080600088815260200190815260200160002060008a73ffffffffffffffffffffffffffffffffffffffff1673ffffffffffffffffffffffffffffffffffffffff168152602001908152602001600020549050858110156121d5576040517f08c379a00000000000000000000000000000000000000000000000000000000081526004016121cc90613878565b60405180910390fd5b85810360008089815260200190815260200160002060008b73ffffffffffffffffffffffffffffffffffffffff1673ffffffffffffffffffffffffffffffffffffffff168152602001908152602001600020819055508560008089815260200190815260200160002060008a73ffffffffffffffffffffffffffffffffffffffff1673ffffffffffffffffffffffffffffffffffffffff168152602001908152602001600020600082825461228a9190613b46565b925050819055508773ffffffffffffffffffffffffffffffffffffffff168973ffffffffffffffffffffffffffffffffffffffff168573ffffffffffffffffffffffffffffffffffffffff167fc3d58168c5ae7397731d063d5bbf3d657854427343f4c083240f7aacaa2d0f628a8a6040516123079291906139f3565b60405180910390a461231d848a8a86868a6124d4565b61232b848a8a8a8a8a6126c3565b505050505050505050565b60007f4e2312e0000000000000000000000000000000000000000000000000000000007bffffffffffffffffffffffffffffffffffffffffffffffffffffffff1916827bffffffffffffffffffffffffffffffffffffffffffffffffffffffff191614806123a957506123a8826128aa565b5b9050919050565b60606000600167ffffffffffffffff8111156123f5577f4e487b7100000000000000000000000000000000000000000000000000000000600052604160045260246000fd5b6040519080825280602002602001820160405280156124235781602001602082028036833780820191505090505b5090508281600081518110612461577f4e487b7100000000000000000000000000000000000000000000000000000000600052603260045260246000fd5b60200260200101818152505080915050919050565b61247e610c57565b156124be576040517f08c379a00000000000000000000000000000000000000000000000000000000081526004016124b590613778565b60405180910390fd5b6124cc868686868686612914565b505050505050565b505050505050565b6124fb8473ffffffffffffffffffffffffffffffffffffffff16612972565b156126bb578373ffffffffffffffffffffffffffffffffffffffff1663bc197c8187878686866040518663ffffffff1660e01b81526004016125419594939291906134e5565b602060405180830381600087803b15801561255b57600080fd5b505af192505050801561258c57506040513d601f19601f820116820180604052508101906125899190612f0d565b60015b61263257612598613e50565b806308c379a014156125f557506125ad614673565b806125b857506125f7565b806040517f08c379a00000000000000000000000000000000000000000000000000000000081526004016125ec9190613696565b60405180910390fd5b505b6040517f08c379a0000000000000000000000000000000000000000000000000000000008152600401612629906136b8565b60405180910390fd5b63bc197c8160e01b7bffffffffffffffffffffffffffffffffffffffffffffffffffffffff1916817bffffffffffffffffffffffffffffffffffffffffffffffffffffffff1916146126b9576040517f08c379a00000000000000000000000000000000000000000000000000000000081526004016126b0906136f8565b60405180910390fd5b505b505050505050565b6126e28473ffffffffffffffffffffffffffffffffffffffff16612972565b156128a2578373ffffffffffffffffffffffffffffffffffffffff1663f23a6e6187878686866040518663ffffffff1660e01b8152600401612728959493929190613584565b602060405180830381600087803b15801561274257600080fd5b505af192505050801561277357506040513d601f19601f820116820180604052508101906127709190612f0d565b60015b6128195761277f613e50565b806308c379a014156127dc5750612794614673565b8061279f57506127de565b806040517f08c379a00000000000000000000000000000000000000000000000000000000081526004016127d39190613696565b60405180910390fd5b505b6040517f08c379a0000000000000000000000000000000000000000000000000000000008152600401612810906136b8565b60405180910390fd5b63f23a6e6160e01b7bffffffffffffffffffffffffffffffffffffffffffffffffffffffff1916817bffffffffffffffffffffffffffffffffffffffffffffffffffffffff1916146128a0576040517f08c379a0000000000000000000000000000000000000000000000000000000008152600401612897906136f8565b60405180910390fd5b505b505050505050565b60007f01ffc9a7000000000000000000000000000000000000000000000000000000007bffffffffffffffffffffffffffffffffffffffffffffffffffffffff1916827bffffffffffffffffffffffffffffffffffffffffffffffffffffffff1916149050919050565b612922868686868686612995565b61292a610c57565b1561296a576040517f08c379a0000000000000000000000000000000000000000000000000000000008152600401612961906137d8565b60405180910390fd5b505050505050565b6000808273ffffffffffffffffffffffffffffffffffffffff163b119050919050565b505050505050565b60006129b06129ab84613a41565b613a1c565b905080838252602082019050828560208602820111156129cf57600080fd5b60005b858110156129ff57816129e58882612ab3565b8452602084019350602083019250506001810190506129d2565b5050509392505050565b6000612a1c612a1784613a6d565b613a1c565b90508083825260208201905082856020860282011115612a3b57600080fd5b60005b85811015612a6b5781612a518882612b85565b845260208401935060208301925050600181019050612a3e565b5050509392505050565b6000612a88612a8384613a99565b613a1c565b905082815260208101848484011115612aa057600080fd5b612aab848285613c75565b509392505050565b600081359050612ac281614709565b92915050565b600082601f830112612ad957600080fd5b8135612ae984826020860161299d565b91505092915050565b600082601f830112612b0357600080fd5b8135612b13848260208601612a09565b91505092915050565b600081359050612b2b81614720565b92915050565b600081359050612b4081614737565b92915050565b600081519050612b5581614737565b92915050565b600082601f830112612b6c57600080fd5b8135612b7c848260208601612a75565b91505092915050565b600081359050612b948161474e565b92915050565b600081519050612ba98161474e565b92915050565b600060208284031215612bc157600080fd5b6000612bcf84828501612ab3565b91505092915050565b60008060408385031215612beb57600080fd5b6000612bf985828601612ab3565b9250506020612c0a85828601612ab3565b9150509250929050565b600080600080600060a08688031215612c2c57600080fd5b6000612c3a88828901612ab3565b9550506020612c4b88828901612ab3565b945050604086013567ffffffffffffffff811115612c6857600080fd5b612c7488828901612af2565b935050606086013567ffffffffffffffff811115612c9157600080fd5b612c9d88828901612af2565b925050608086013567ffffffffffffffff811115612cba57600080fd5b612cc688828901612b5b565b9150509295509295909350565b600080600060608486031215612ce857600080fd5b6000612cf686828701612ab3565b9350506020612d0786828701612ab3565b9250506040612d1886828701612b85565b9150509250925092565b600080600080600060a08688031215612d3a57600080fd5b6000612d4888828901612ab3565b9550506020612d5988828901612ab3565b9450506040612d6a88828901612b85565b9350506060612d7b88828901612b85565b925050608086013567ffffffffffffffff811115612d9857600080fd5b612da488828901612b5b565b9150509295509295909350565b60008060408385031215612dc457600080fd5b6000612dd285828601612ab3565b9250506020612de385828601612b1c565b9150509250929050565b60008060408385031215612e0057600080fd5b6000612e0e85828601612ab3565b9250506020612e1f85828601612b85565b9150509250929050565b600080600060608486031215612e3e57600080fd5b6000612e4c86828701612ab3565b9350506020612e5d86828701612b85565b9250506040612e6e86828701612b85565b9150509250925092565b60008060408385031215612e8b57600080fd5b600083013567ffffffffffffffff811115612ea557600080fd5b612eb185828601612ac8565b925050602083013567ffffffffffffffff811115612ece57600080fd5b612eda85828601612af2565b9150509250929050565b600060208284031215612ef657600080fd5b6000612f0484828501612b31565b91505092915050565b600060208284031215612f1f57600080fd5b6000612f2d84828501612b46565b91505092915050565b600060208284031215612f4857600080fd5b6000612f5684828501612b85565b91505092915050565b600060208284031215612f7157600080fd5b6000612f7f84828501612b9a565b91505092915050565b6000612f94838361347f565b60208301905092915050565b612fa981613c01565b82525050565b6000612fba82613ada565b612fc48185613b08565b9350612fcf83613aca565b8060005b83811015613000578151612fe78882612f88565b9750612ff283613afb565b925050600181019050612fd3565b5085935050505092915050565b61301681613c13565b82525050565b61302581613c1f565b82525050565b600061303682613ae5565b6130408185613b19565b9350613050818560208601613c84565b61305981613e72565b840191505092915050565b600061306f82613af0565b6130798185613b2a565b9350613089818560208601613c84565b61309281613e72565b840191505092915050565b60006130a882613af0565b6130b28185613b3b565b93506130c2818560208601613c84565b80840191505092915050565b60006130db603483613b2a565b91506130e682613e90565b604082019050919050565b60006130fe602f83613b2a565b915061310982613edf565b604082019050919050565b6000613121602883613b2a565b915061312c82613f2e565b604082019050919050565b6000613144601483613b2a565b915061314f82613f7d565b602082019050919050565b6000613167602183613b2a565b915061317282613fa6565b604082019050919050565b600061318a602683613b2a565b915061319582613ff5565b604082019050919050565b60006131ad602e83613b2a565b91506131b882614044565b604082019050919050565b60006131d0602483613b2a565b91506131db82614093565b604082019050919050565b60006131f3602b83613b2a565b91506131fe826140e2565b604082019050919050565b6000613216602c83613b2a565b915061322182614131565b604082019050919050565b6000613239602a83613b2a565b915061324482614180565b604082019050919050565b600061325c601083613b2a565b9150613267826141cf565b602082019050919050565b600061327f602583613b2a565b915061328a826141f8565b604082019050919050565b60006132a2602383613b2a565b91506132ad82614247565b604082019050919050565b60006132c5602a83613b2a565b91506132d082614296565b604082019050919050565b60006132e8600583613b3b565b91506132f3826142e5565b600582019050919050565b600061330b605183613b3b565b91506133168261430e565b605182019050919050565b600061332e602083613b2a565b915061333982614383565b602082019050919050565b6000613351602183613b2a565b915061335c826143ac565b604082019050919050565b6000613374603b83613b2a565b915061337f826143fb565b604082019050919050565b6000613397602183613b2a565b91506133a28261444a565b604082019050919050565b60006133ba603983613b2a565b91506133c582614499565b604082019050919050565b60006133dd602983613b2a565b91506133e8826144e8565b604082019050919050565b6000613400602983613b2a565b915061340b82614537565b604082019050919050565b6000613423602883613b2a565b915061342e82614586565b604082019050919050565b6000613446602183613b2a565b9150613451826145d5565b604082019050919050565b6000613469602883613b2a565b915061347482614624565b604082019050919050565b61348881613c6b565b82525050565b61349781613c6b565b82525050565b60006134a8826132fe565b91506134b4828461309d565b91506134bf826132db565b915081905092915050565b60006020820190506134df6000830184612fa0565b92915050565b600060a0820190506134fa6000830188612fa0565b6135076020830187612fa0565b81810360408301526135198186612faf565b9050818103606083015261352d8185612faf565b90508181036080830152613541818461302b565b90509695505050505050565b60006060820190506135626000830186612fa0565b61356f6020830185612fa0565b61357c604083018461348e565b949350505050565b600060a0820190506135996000830188612fa0565b6135a66020830187612fa0565b6135b3604083018661348e565b6135c0606083018561348e565b81810360808301526135d2818461302b565b90509695505050505050565b60006040820190506135f36000830185612fa0565b613600602083018461348e565b9392505050565b600060208201905081810360008301526136218184612faf565b905092915050565b600060408201905081810360008301526136438185612faf565b905081810360208301526136578184612faf565b90509392505050565b6000602082019050613675600083018461300d565b92915050565b6000602082019050613690600083018461301c565b92915050565b600060208201905081810360008301526136b08184613064565b905092915050565b600060208201905081810360008301526136d1816130ce565b9050919050565b600060208201905081810360008301526136f1816130f1565b9050919050565b6000602082019050818103600083015261371181613114565b9050919050565b6000602082019050818103600083015261373181613137565b9050919050565b600060208201905081810360008301526137518161315a565b9050919050565b600060208201905081810360008301526137718161317d565b9050919050565b60006020820190508181036000830152613791816131a0565b9050919050565b600060208201905081810360008301526137b1816131c3565b9050919050565b600060208201905081810360008301526137d1816131e6565b9050919050565b600060208201905081810360008301526137f181613209565b9050919050565b600060208201905081810360008301526138118161322c565b9050919050565b600060208201905081810360008301526138318161324f565b9050919050565b6000602082019050818103600083015261385181613272565b9050919050565b6000602082019050818103600083015261387181613295565b9050919050565b60006020820190508181036000830152613891816132b8565b9050919050565b600060208201905081810360008301526138b181613321565b9050919050565b600060208201905081810360008301526138d181613344565b9050919050565b600060208201905081810360008301526138f181613367565b9050919050565b600060208201905081810360008301526139118161338a565b9050919050565b60006020820190508181036000830152613931816133ad565b9050919050565b60006020820190508181036000830152613951816133d0565b9050919050565b60006020820190508181036000830152613971816133f3565b9050919050565b6000602082019050818103600083015261399181613416565b9050919050565b600060208201905081810360008301526139b181613439565b9050919050565b600060208201905081810360008301526139d18161345c565b9050919050565b60006020820190506139ed600083018461348e565b92915050565b6000604082019050613a08600083018561348e565b613a15602083018461348e565b9392505050565b6000613a26613a37565b9050613a328282613ce9565b919050565b6000604051905090565b600067ffffffffffffffff821115613a5c57613a5b613e21565b5b602082029050602081019050919050565b600067ffffffffffffffff821115613a8857613a87613e21565b5b602082029050602081019050919050565b600067ffffffffffffffff821115613ab457613ab3613e21565b5b613abd82613e72565b9050602081019050919050565b6000819050602082019050919050565b600081519050919050565b600081519050919050565b600081519050919050565b6000602082019050919050565b600082825260208201905092915050565b600082825260208201905092915050565b600082825260208201905092915050565b600081905092915050565b6000613b5182613c6b565b9150613b5c83613c6b565b9250827fffffffffffffffffffffffffffffffffffffffffffffffffffffffffffffffff03821115613b9157613b90613d94565b5b828201905092915050565b6000613ba782613c6b565b9150613bb283613c6b565b925082613bc257613bc1613dc3565b5b828204905092915050565b6000613bd882613c6b565b9150613be383613c6b565b925082821015613bf657613bf5613d94565b5b828203905092915050565b6000613c0c82613c4b565b9050919050565b60008115159050919050565b60007fffffffff0000000000000000000000000000000000000000000000000000000082169050919050565b600073ffffffffffffffffffffffffffffffffffffffff82169050919050565b6000819050919050565b82818337600083830152505050565b60005b83811015613ca2578082015181840152602081019050613c87565b83811115613cb1576000848401525b50505050565b60006002820490506001821680613ccf57607f821691505b60208210811415613ce357613ce2613df2565b5b50919050565b613cf282613e72565b810181811067ffffffffffffffff82111715613d1157613d10613e21565b5b80604052505050565b6000613d2582613c6b565b91507fffffffffffffffffffffffffffffffffffffffffffffffffffffffffffffffff821415613d5857613d57613d94565b5b600182019050919050565b6000613d6e82613c6b565b9150613d7983613c6b565b925082613d8957613d88613dc3565b5b828206905092915050565b7f4e487b7100000000000000000000000000000000000000000000000000000000600052601160045260246000fd5b7f4e487b7100000000000000000000000000000000000000000000000000000000600052601260045260246000fd5b7f4e487b7100000000000000000000000000000000000000000000000000000000600052602260045260246000fd5b7f4e487b7100000000000000000000000000000000000000000000000000000000600052604160045260246000fd5b600060033d1115613e6f5760046000803e613e6c600051613e83565b90505b90565b6000601f19601f8301169050919050565b60008160e01c9050919050565b7f455243313135353a207472616e7366657220746f206e6f6e204552433131353560008201527f526563656976657220696d706c656d656e746572000000000000000000000000602082015250565b7f455243313135353a2063616c6c6572206973206e6f7420746f6b656e206f776e60008201527f6572206e6f7220617070726f7665640000000000000000000000000000000000602082015250565b7f455243313135353a204552433131353552656365697665722072656a6563746560008201527f6420746f6b656e73000000000000000000000000000000000000000000000000602082015250565b7f5061757361626c653a206e6f7420706175736564000000000000000000000000600082015250565b7f6275726e4e46543a20436f6e747261637420686173206265656e20706175736560008201527f6400000000000000000000000000000000000000000000000000000000000000602082015250565b7f4f776e61626c653a206e6577206f776e657220697320746865207a65726f206160008201527f6464726573730000000000000000000000000000000000000000000000000000602082015250565b7f5f6265666f7265546f6b656e5472616e736665723a20436f6e7472616374206860008201527f6173206265656e20706175736564000000000000000000000000000000000000602082015250565b7f455243313135353a206275726e20616d6f756e7420657863656564732062616c60008201527f616e636500000000000000000000000000000000000000000000000000000000602082015250565b7f737570706f727473496e746572666163653a20436f6e7472616374206861732060008201527f6265656e20706175736564000000000000000000000000000000000000000000602082015250565b7f455243313135355061757361626c653a20746f6b656e207472616e736665722060008201527f7768696c65207061757365640000000000000000000000000000000000000000602082015250565b7f455243313135353a2061646472657373207a65726f206973206e6f742061207660008201527f616c6964206f776e657200000000000000000000000000000000000000000000602082015250565b7f5061757361626c653a2070617573656400000000000000000000000000000000600082015250565b7f455243313135353a207472616e7366657220746f20746865207a65726f20616460008201527f6472657373000000000000000000000000000000000000000000000000000000602082015250565b7f455243313135353a206275726e2066726f6d20746865207a65726f206164647260008201527f6573730000000000000000000000000000000000000000000000000000000000602082015250565b7f455243313135353a20696e73756666696369656e742062616c616e636520666f60008201527f72207472616e7366657200000000000000000000000000000000000000000000602082015250565b7f2e6a736f6e000000000000000000000000000000000000000000000000000000600082015250565b7f68747470733a2f2f676174657761792e70696e6174612e636c6f75642f69706660008201527f732f516d55794d79654e43464d513743513245626d76514a377667754163455660208201527f734535503255425435746275754271432f000000000000000000000000000000604082015250565b7f4f776e61626c653a2063616c6c6572206973206e6f7420746865206f776e6572600082015250565b7f6d696e744e46543a20436f6e747261637420686173206265656e20706175736560008201527f6400000000000000000000000000000000000000000000000000000000000000602082015250565b7f455243313135355072657365744d696e7465725061757365723a206d7573742060008201527f686176652070617573657220726f6c6520746f20756e70617573650000000000602082015250565b7f636865636b49643a20436f6e747261637420686173206265656e20706175736560008201527f6400000000000000000000000000000000000000000000000000000000000000602082015250565b7f455243313135355072657365744d696e7465725061757365723a206d7573742060008201527f686176652070617573657220726f6c6520746f20706175736500000000000000602082015250565b7f455243313135353a2073657474696e6720617070726f76616c2073746174757360008201527f20666f722073656c660000000000000000000000000000000000000000000000602082015250565b7f455243313135353a206163636f756e747320616e6420696473206c656e67746860008201527f206d69736d617463680000000000000000000000000000000000000000000000602082015250565b7f455243313135353a2069647320616e6420616d6f756e7473206c656e6774682060008201527f6d69736d61746368000000000000000000000000000000000000000000000000602082015250565b7f455243313135353a206d696e7420746f20746865207a65726f2061646472657360008201527f7300000000000000000000000000000000000000000000000000000000000000602082015250565b7f6d61726b65745472616e736665723a20436f6e7472616374206861732062656560008201527f6e20706175736564000000000000000000000000000000000000000000000000602082015250565b600060443d101561468357614706565b61468b613a37565b60043d036004823e80513d602482011167ffffffffffffffff821117156146b3575050614706565b808201805167ffffffffffffffff8111156146d15750505050614706565b80602083010160043d0385018111156146ee575050505050614706565b6146fd82602001850186613ce9565b82955050505050505b90565b61471281613c01565b811461471d57600080fd5b50565b61472981613c13565b811461473457600080fd5b50565b61474081613c1f565b811461474b57600080fd5b50565b61475781613c6b565b811461476257600080fd5b5056fea2646970667358221220eeb5f5c9878bcf65f3122f89afe1b8c8aba55c001543c02d8361c54c390c47cd64736f6c63430008040033697066733a2f2f516d55794d79654e43464d513743513245626d76514a3776677541634556734535503255425435746275754271432f7b69647d2e6a736f6e",
  "linkReferences": {},
  "deployedLinkReferences": {}
}